:020000040800F2
:100000000809002465030008993B000849390008E5
:10001000913B0008690500088950000800000000B5
:10002000000000000000000000000000B93F0008D0
:100030007105000800000000113C0008194000088C
:100040008303000883030008830300088303000878
:100050008303000883030008830300088303000868
:100060008303000883030008830300088303000858
:100070008303000883030008830300088303000848
:100080008303000883030008830300088303000838
:100090008303000883030008830300088303000828
:1000A0008303000883030008830300088303000818
:1000B0008303000883030008830300088303000808
:1000C00083030008830300088303000883030008F8
:1000D00083030008830300088303000883030008E8
:1000E0008303000883030008000000008303000866
:1000F00083030008830300088303000883030008C8
:1001000083030008830300088303000883030008B7
:1001100083030008830300088303000883030008A7
:100120008303000883030008830300088303000897
:100130008303000883030008830300088303000887
:1001400000000000000000000000000000000000AF
:100150008303000883030008830300088303000867
:100160008303000883030008830300088303000857
:1001700083030008830300088303000800000000D5
:100180008303000883030008830300088303000837
:100190008303000883030008830300088303000827
:1001A0008303000883030008830300088303000817
:1001B0008303000883030008830300088303000807
:1001C00083030008830300088303000883030008F7
:1001D00083030008830300088303000883030008E7
:1001E00083030008830300088303000883030008D7
:1001F00083030008830300088303000883030008C7
:1002000083030008830300088303000883030008B6
:1002100083030008830300088303000883030008A6
:100220008303000883030008830300080000000024
:100230008303000883030008000000008303000814
:100240008303000883030008830300088303000876
:100250008303000883030008830300088303000866
:100260008303000883030008830300088303000856
:1002700083030008830300088303000800000000D4
:1002800083030008830300088303000800000000C4
:10029000000000008303000800F002F800F052F8AC
:1002A00014A696E8000CB244B344DA4501D100F03C
:1002B00049F8BAE80F000FA696E83000A5EB040550
:1002C00004EB0607AAEB0704A7F101074FEA15158F
:1002D0004FEA3414A4F10104AC4201D300F032F827
:1002E00013F0010F18BFFB1A43F0010300F001F8EF
:1002F000DBE71847A84E0000C84E0000103A24BFA4
:1003000078C878C1FAD8520724BF30C830C144BF7A
:1003100004680C6070470000704700000023002450
:1003200000250026103A28BF78C1FBD8520728BF05
:1003300030C148BF0B6070471FB504F005FF1FBDFB
:1003400010B510BD00F0D4F81146FFF7F5FF04F02A
:10035000EBFE00F0F2F803B4FFF7F2FF03BC00F08D
:10036000F9F800000A4880470A4880470A480047D1
:10037000FEE7FEE7FEE7FEE7FEE7FEE7FEE7FEE755
:10038000FEE7FEE705480649064A074B70470000AE
:1003900089050008094100089902000808010024A5
:1003A00008090024080500240805002453EA020C6B
:1003B00000F069802DE9F04B4FF00006002B1FBFC5
:1003C000B3FA83F503FA05F424FA05F65E4012BF8A
:1003D0001643B2FA82F502FA05F4C5F120051EBFF4
:1003E00022FA05FC44EA0C04203556EA044C4FEA94
:1003F000144418BF641C4FF000084FF000099042ED
:1004000071EB030C39D3002919BFB1FA81F701FA56
:1004100007F6B0FA80F700FA07F6C7F120071EBF0B
:1004200020FA07FC46EA0C062037B6FBF4FCA7EBE3
:100430000507103F07F01F0BCBF120062CFA06F63C
:100440000CFA0BFB44BFB3460026202FA4BF5E4628
:100450004FF0000B5BEA060C08BF4FF0010B19EBE5
:100460000B0948EB0608ABFB027C06FB02CC0BFB3E
:1004700003CCC01B71EB0C01C1E70B4602464146A1
:100480004846BDE8F08B13B5084318BF4FF0FF3066
:100490000146AFF30080BDE81C4070474FF00002FA
:1004A00000B5134694469646203922BFA0E80C506A
:1004B000A0E80C50B1F12001BFF4F7AF090728BF45
:1004C000A0E80C5048BF0CC05DF804EB890028BFC1
:1004D00040F8042B08BF704748BF20F8022B11F0EA
:1004E000804F18BF00F8012B704770477047704766
:1004F000754600F02BF8AE4605006946534620F0DD
:100500000700854618B020B5FFF73CFFBDE8204046
:100510004FF000064FF000074FF000084FF0000BBF
:10052000AC46ACE8C009ACE8C009ACE8C009ACE82E
:10053000C00921F007018D46704710B50446AFF39E
:1005400000802046BDE81040FFF705BF0048704717
:100550001000002401491820ABBEFEE7260002006F
:100560007047000000000000FFE7FEE70000000009
:10057000704700000000000081B0EFF3108072B6F9
:100580000090FFE7FEE7000044F60C01C5F602010B
:10059000086840F002000860FFE744F60400C5F672
:1005A000020000688004002801D4FFE7F5E77047E7
:1005B00090B00F900E9100200D908020C5F60000A5
:1005C0000A90FFE70E9800680D99C840002800F0D7
:1005D000CF81FFE70E9800680D9A012191400840F5
:1005E0000C900C98002800F0BF81FFE70E9840683F
:1005F00000F00300012807D0FFE70E98406800F0E4
:10060000030002282FD1FFE70F9880680B900D9808
:100610004100032000FA01F10B9888430B900E98DB
:10062000C0680D99490000FA01F10B9808430B903E
:100630000B980F9988600F9840680B900D990120D6
:1006400000FA01F10B9888430B900E984068C0F3B4
:1006500000100D9900FA01F10B9808430B900B98CC
:100660000F994860FFE70E98406800F003000328E8
:1006700018D0FFE70F98C0680B900D984100032039
:1006800000FA01F10B9888430B900E9880680D9941
:10069000490000FA01F10B9808430B900B980F9951
:1006A000C860FFE70E98406800F00300022826D1DA
:1006B000FFE70F980D996FF0030202EA5101084419
:1006C000006A0B900D9800F0070081000F2000FADF
:1006D00001F10B9888430B900E9800690D9901F079
:1006E0000701890000FA01F10B9808430B900B9861
:1006F0000F990D9B02EA530211440862FFE70F981D
:1007000000680B900D984100032000FA01F10B984E
:1007100088430B900E98406800F003000D99490043
:1007200000FA01F10B9808430B900B980F990860A1
:100730000E9880798007002800F01581FFE7FFE719
:1007400044F2F440C5F60200016841F00201016084
:10075000006800F0020009900998FFE70D9820F06A
:10076000030040F20841C5F6000140580B900D9877
:1007700000F0030081000F2000FA01F10B9888437C
:100780000B900F980021C5F60201884203D1FFE7C4
:10079000002008907AE00F9840F20041C5F602016F
:1007A000884203D1FFE7012007906CE00F9840F6E4
:1007B0000001C5F60201884203D1FFE7022006903E
:1007C0005EE00F9840F60041C5F60201884203D171
:1007D000FFE70320059050E00F9841F20001C5F6B5
:1007E0000201884203D1FFE70420049042E00F9801
:1007F00041F20041C5F60201884203D1FFE705201E
:10080000039034E00F9841F60001C5F602018842DA
:1008100003D1FFE70620029026E00F9841F6004141
:10082000C5F60201884203D1FFE70720019018E0D6
:100830000F9842F20001C5F60201884203D1FFE79A
:10084000082000900AE00F9942F20042C5F6020229
:100850000A20914208BF09200090FFE7009801900C
:10086000FFE701980290FFE702980390FFE70398E3
:100870000490FFE704980590FFE705980690FFE7CE
:1008800006980790FFE707980890FFE708980D99EA
:1008900001F00301890000FA01F10B9808430B9065
:1008A0000B980D9921F0030140F20842C5F60002B1
:1008B00088504FF0B04000680B900C990B9888431B
:1008C0000B900E988079C006002805D5FFE70C999B
:1008D0000B9808430B90FFE70B984FF0B04108606E
:1008E0000420C5F6000000680B900C990B98884313
:1008F0000B900E9880798006002805D5FFE70C99AB
:100900000B9808430B90FFE70B980421C5F60001F4
:1009100008600A9840680B900C990B9888430B90DC
:100920000E9880798007002805D5FFE70C990B9871
:1009300008430B90FFE70B980A9948600A980068F3
:100940000B900C990B9888430B900E988079C007F8
:1009500028B1FFE70C990B9808430B90FFE70B9821
:100960000A990860FFE7FFE70D9801300D9029E62E
:1009700010B070470000000041F20000C5F60040D2
:100980000068000C7047000040F20410C2F2004002
:10099000006870470000000040F20800C2F200400A
:1009A000027840F20411C2F2004108681044086065
:1009B000704700000000000080B582B0032000F006
:1009C00017F901F00DFF44F21842C5F60202116852
:1009D000C1F3032345F26211C0F60001CB5C03F0C2
:1009E0001F03D84000900098126802F00F02895C43
:1009F00001F01F01C84040F20401C2F2004108604A
:100A0000009840F20001C2F2004108600F2000F09F
:100A100013F820B1FFE701208DF8070005E000F092
:100A2000BBF800208DF80700FFE79DF8070002B033
:100A300080BD00000000000080B582B0009040F250
:100A40000800C2F20040007820B9FFE701208DF8CD
:100A5000070030E040F20000C2F20040006840F2BF
:100A60000801C2F200410A784FF47A71B1FBF2F149
:100A7000B0FBF1F002F0E0FD20B1FFE701208DF8BE
:100A8000070018E000980F280DD8FFE700994FF0F5
:100A9000FF30002200F094F8009840F20C01C2F2FE
:100AA0000041086003E001208DF8070003E000200A
:100AB0008DF80700FFE79DF8070002B080BD000039
:100AC00010B581B00090009840784EF69851CEF263
:100AD000000108604EF6A051CEF20001086820F037
:100AE00001000860009840684EF69C52CEF2000269
:100AF0001060DDF800E09EF80C0000079EF80B2067
:100B000040EA02609EF800209EF808309EF809C076
:100B10009EF80A4040EAC4409EF80D4040EA8440F6
:100B20009EF80E4040EA44409EF80FE040EA0E4036
:100B300040EA0C2040EA43001043086001B010BDB9
:100B4000BFF35F8F4EF62451CEF20001086820F407
:100B5000803008604EF69451CEF20001002008600B
:100B6000704700000000000081B00090009840F045
:100B700001004EF69451CEF2000108604EF6245169
:100B8000CEF20001086840F480300860BFF34F8F58
:100B9000BFF36F8F01B0704781B0FFE744F2F440BC
:100BA000C5F60200016841F002010160006800F032
:100BB000020000900098FFE701B0704700000000BD
:100BC00080B586B0ADF816000491039204F060FA87
:100BD0000290BDF91600019002980499039A02F060
:100BE000DFFF0146019804F05BFA06B080BD00000B
:100BF00080B582B00190019804F076FA02B080BD11
:100C000080B584B0029044F60C00C5F6020000687E
:100C100000F004010020B0EB910F13D1FFE744F680
:100C20000C00C5F60200006800F007000299884237
:100C300004D0FFE701208DF80F002EE000208DF892
:100C40000F002AE044F60C01C5F60201086820F006
:100C50000700029A10430860FFF796FE0190FFE735
:100C600044F60400C5F60200006800F400510020BC
:100C7000B0EB513F0DD1FFE7FFF786FE0199401A17
:100C8000B0F57A7F04D9FFE701208DF80F0004E06A
:100C9000E6E700208DF80F00FFE79DF80F0004B095
:100CA00080BD00000000000080B501F045FD44F269
:100CB0002041C5F602010968C1F3021245F2621132
:100CC000C0F60001895C01F01F01C84080BD000032
:100CD00088B0079044F22840C5F60200016801F090
:100CE000030106910068C0F30530059044F22C40E2
:100CF000C5F602000068C0F300100490049844F2A6
:100D00003C41C5F60201096889B2C908484300EEB2
:100D1000100AB8EE400A8DED020A0598002800F08E
:100D20001181FFE70698009048B1FFE7009801287D
:100D300065D0FFE70098022800F08380A3E044F22A
:100D40000040C5F60200006800F020010020B0EB72
:100D5000511F31D0FFE744F20040C5F602000068A1
:100D6000C0F3C10149F20000C0F2D030C840039086
:100D70009DED030AB8EE400A9DED051AB8EE411A42
:100D800080EE010A44F23840C5F6020000686FF3B5
:100D90005F2001EE100AB8EE411A9DED022A9FED88
:100DA0006F3A02EE031AB7EE002A31EE021A20EE75
:100DB000010A8DED010A21E09DED050AB8EE401A09
:100DC0009FED680A80EE010A44F23840C5F6020041
:100DD00000686FF35F2001EE100AB8EE411A9DED36
:100DE000022A9FED5E3A02EE031AB7EE002A31EEB8
:100DF000021A20EE010A8DED010AFFE765E09DED84
:100E0000050AB8EE401A9FED560A80EE010A44F238
:100E10003840C5F6020000686FF35F2001EE100A4B
:100E2000B8EE411A9DED022A9FED4C3A02EE031AEC
:100E3000B7EE002A31EE021A20EE010A8DED010A0A
:100E400043E09DED050AB8EE401A9FED430A80EE9F
:100E5000010A44F23840C5F6020000686FF35F20D3
:100E600001EE100AB8EE411A9DED022A9FED3B3AC1
:100E700002EE031AB7EE002A31EE021A20EE010A42
:100E80008DED010A21E09DED050AB8EE401A9FEDB7
:100E9000340A80EE010A44F23840C5F602000068C8
:100EA0006FF35F2001EE100AB8EE411A9DED022AA1
:100EB0009FED2A3A02EE031AB7EE002A31EE021A2B
:100EC00020EE010A8DED010AFFE79DED010A44F2D3
:100ED0003840C5F60200016889B2490A01EE101ACD
:100EE000B8EE411AB7EE002A31EE021A80EE010A7E
:100EF0000799BCEEC00A81ED000A9DED010A016868
:100F0000C1F3064101EE101AB8EE411A31EE021A91
:100F100080EE010A0799BCEEC00A81ED010A9DED41
:100F2000010A0068C0F3066001EE100AB8EE411A2B
:100F300031EE021A80EE010A0798BCEEC00A80ED7D
:100F4000020A07E00799002008600799486007999E
:100F50008860FFE708B0704720BCBE4B0000003936
:100F60000024744A0024744C88B0079044F228404E
:100F7000C5F60200016801F0030106910068C0F3A4
:100F80000550059044F22C40C5F602000068C0F3FD
:100F900000200490049844F24441C5F60201096817
:100FA00089B2C908484300EE100AB8EE400A8DED38
:100FB000020A0598002800F01181FFE706980090CA
:100FC00048B1FFE70098012865D0FFE700980228A4
:100FD00000F08380A3E044F20040C5F60200006800
:100FE00000F020010020B0EB511F31D0FFE744F2A8
:100FF0000040C5F602000068C0F3C10149F20000DC
:10100000C0F2D030C84003909DED030AB8EE400A0C
:101010009DED051AB8EE411A80EE010A44F24040F7
:10102000C5F6020000686FF35F2001EE100AB8EE0B
:10103000411A9DED022A9FED6F3A02EE031AB7EEB8
:10104000002A31EE021A20EE010A8DED010A21E09C
:101050009DED050AB8EE401A9FED680A80EE010A80
:1010600044F24040C5F6020000686FF35F2001EED5
:10107000100AB8EE411A9DED022A9FED5E3A02EE8B
:10108000031AB7EE002A31EE021A20EE010A8DEDA6
:10109000010AFFE765E09DED050AB8EE401A9FEDF5
:1010A000560A80EE010A44F24040C5F6020000688C
:1010B0006FF35F2001EE100AB8EE411A9DED022A8F
:1010C0009FED4C3A02EE031AB7EE002A31EE021AF7
:1010D00020EE010A8DED010A43E09DED050AB8EE10
:1010E000401A9FED430A80EE010A44F24040C5F6E3
:1010F000020000686FF35F2001EE100AB8EE411A9B
:101100009DED022A9FED3B3A02EE031AB7EE002A4C
:1011100031EE021A20EE010A8DED010A21E09DED6B
:10112000050AB8EE401A9FED340A80EE010A44F237
:101130004040C5F6020000686FF35F2001EE100A20
:10114000B8EE411A9DED022A9FED2A3A02EE031AEB
:10115000B7EE002A31EE021A20EE010A8DED010AE7
:10116000FFE79DED010A44F24040C5F60200016828
:1011700089B2490A01EE101AB8EE411AB7EE002AF8
:1011800031EE021A80EE010A0799BCEEC00A81ED29
:10119000000A9DED010A0168C1F3064101EE101A33
:1011A000B8EE411A31EE021A80EE010A0799BCEE40
:1011B000C00A81ED010A9DED010A0068C0F30660D6
:1011C00001EE100AB8EE411A31EE021A80EE010A61
:1011D0000798BCEEC00A80ED020A07E007990020DC
:1011E00008600799486007998860FFE708B0704772
:1011F00020BCBE4B000000390024744A0024744C0B
:1012000080B59AB0189000208DF857008DF85600E0
:101210001898C0780007002848D5FFE71898806E16
:10122000149078B1FFE71498B0F5801F13D0FFE752
:101230001498B0F5001F16D0FFE71498B0F5401FC2
:1012400019D019E044F22C41C5F60201086840F4B7
:101250000030086014E018980830022102F0DCFC2D
:101260008DF857000CE018982830022102F0BCFDE0
:101270008DF8570004E003E001208DF85700FFE7E8
:101280009DF8570060B9FFE744F25041C5F60201EE
:10129000086820F44010189A926E1043086004E029
:1012A0009DF857008DF85600FFE7FFE71898407843
:1012B000C007002840D0FFE71898806D13900428DD
:1012C00020D81399DFE801F0030C141C1D0044F230
:1012D0002C41C5F60201086840F40030086015E0B2
:1012E00018980830002102F097FC8DF857000DE0A7
:1012F00018982830002102F077FD8DF8570005E09E
:1013000004E003E001208DF85700FFE79DF8570047
:1013100060B9FFE744F25041C5F60201086820F0C9
:101320000700189A926D1043086004E09DF857007A
:101330008DF85600FFE7FFE71898407880070028EF
:101340004BD5FFE71898C06D129088B1FFE712984F
:10135000402816D0FFE7129880281AD0FFE712988D
:10136000C0281ED0FFE71298B0F5807F1AD01AE08F
:1013700044F22C41C5F60201086840F400300860D0
:1013800015E018980830002102F046FC8DF857004F
:101390000DE018982830002102F026FD8DF8570046
:1013A00005E004E003E001208DF85700FFE79DF819
:1013B000570060B9FFE744F25041C5F602010868E2
:1013C00020F4E070189AD26D1043086004E09DF894
:1013D00057008DF85600FFE7FFE718984078400760
:1013E000002850D5FFE71898D0F8A8001190A0B1B8
:1013F000FFE71198B0F5001F18D0FFE71198B0F57E
:10140000800F1BD0FFE71198B0F5C00F1ED0FFE78B
:101410001198B0F5000F1AD01AE044F22C41C5F62D
:101420000201086840F40030086015E018980830A0
:10143000002102F0F1FB8DF857000DE018982830DC
:10144000002102F0D1FC8DF8570005E004E003E034
:1014500001208DF85700FFE79DF8570068B9FFE7B6
:1014600044F25841C5F60201086820F46000189A59
:10147000D2F8A8201043086004E09DF857008DF8CA
:101480005600FFE7FFE7189840780007002850D57E
:10149000FFE71898D0F8AC001090A0B1FFE71098C3
:1014A000B0F1807F18D0FFE71098B0F1007F1BD01B
:1014B000FFE71098B0F1407F1ED0FFE71098B0F121
:1014C000806F1AD01AE044F22C41C5F60201086878
:1014D00040F40030086015E018980830002102F050
:1014E0009BFB8DF857000DE018982830002102F082
:1014F0007BFC8DF8570005E004E003E001208DF847
:101500005700FFE79DF8570068B9FFE744F25841DC
:10151000C5F60201086820F0E060189AD2F8AC2005
:101520001043086004E09DF857008DF85600FFE76F
:10153000FFE71898C078800700283ED5FFE7189885
:10154000C06C0F90F0B1FFE70F98102808D0FFE7AC
:101550000F9820280DD0FFE70F98302811D012E007
:1015600044F22C41C5F60201086840F400300860DE
:101570000DE018980830022102F04EFB8DF857005C
:1015800005E004E003E001208DF85700FFE79DF837
:10159000570060B9FFE744F24C41C5F60201086804
:1015A00020F03000189AD26C1043086004E09DF8D7
:1015B00057008DF85600FFE7FFE718984078C006FF
:1015C00000284ED5FFE71898006E0E90A0B1FFE7F7
:1015D0000E98B0F5805F18D0FFE70E98B0F5005F69
:1015E0001BD0FFE70E98B0F5405F1ED0FFE70E98C6
:1015F000B0F5804F1AD01AE044F22C41C5F6020132
:10160000086840F40030086015E0189808300021A0
:1016100002F002FB8DF857000DE0189828300021E9
:1016200002F0E2FB8DF8570005E004E003E0012042
:101630008DF85700FFE79DF8570060B9FFE744F2C7
:101640005041C5F60201086820F4E040189A126E75
:101650001043086004E09DF857008DF85600FFE73E
:10166000FFE718984078800600284CD5FFE71898C7
:10167000406E0D90C8B1FFE70D98B0F5803F15D0D2
:10168000FFE70D98B0F5003F18D0FFE70D98B0F5D3
:10169000403F1BD0FFE70D98B0F5802F17D0FFE734
:1016A0000D98B0F5A02F13D013E016E0189808306D
:1016B000012102F0B1FA8DF857000EE01898283099
:1016C000012102F091FB8DF8570006E005E004E0EF
:1016D00003E001208DF85700FFE79DF8570060B93F
:1016E000FFE744F25041C5F60201086820F4E0200B
:1016F000189A526E1043086004E09DF857008DF868
:101700005600FFE7FFE718984078400600284ED5BE
:10171000FFE71898D0F8B0000C90C8B1FFE70C981C
:10172000B0F1805F15D0FFE70C98B0F1005F18D0E2
:10173000FFE70C98B0F1405F1BD0FFE70C98B0F1C9
:10174000804F17D0FFE70C98B0F1A04F13D013E0F3
:1017500016E018980830012102F05EFA8DF8570063
:101760000EE018982830012102F03EFB8DF857005A
:1017700006E005E004E003E001208DF85700FFE7F4
:101780009DF8570068B9FFE744F25841C5F60201D9
:10179000086820F0E040189AD2F8B02010430860A2
:1017A00004E09DF857008DF85600FFE7FFE7189812
:1017B0004078000600283BD5FFE71898006F0B9093
:1017C000D8B1FFE70B98B0F1805F05D0FFE70B9829
:1017D000B0F1005F09D011E044F22C41C5F60201DE
:1017E000086840F4003008600CE0189808300121C7
:1017F00002F012FA8DF8570004E003E001208DF8A2
:101800005700FFE79DF8570060B9FFE744F25041E9
:10181000C5F60201086820F04050189A126F104374
:10182000086004E09DF857008DF85600FFE7FFE7D9
:101830001898C078C007002837D0FFE71898806C48
:101840000A90032817D80A99DFE801F014020B1355
:1018500044F22C41C5F60201086840F400300860EB
:101860000DE018980830022102F0D6F98DF85700E3
:1018700005E004E003E001208DF85700FFE79DF844
:10188000570060B9FFE744F24C41C5F60201086811
:1018900020F00300189A926C1043086004E09DF851
:1018A00057008DF85600FFE7FFE71898807840064C
:1018B000002840F1B480FFE744F60001C5F60201BC
:1018C000086840F480700860FFF75EF81690FFE744
:1018D00044F60000C5F602000068C00500280CD4DC
:1018E000FFE7FFF751F81699401A652804D3FFE780
:1018F00003208DF8570000E0EAE79DF85700002824
:1019000040F08780FFE744F27040C5F602000068AF
:1019100000F440701899D1F8B41001F44071884275
:1019200013D0FFE744F27041C5F60201086820F4C5
:1019300040701790086840F480300860086820F410
:101940008030086017980860FFE71898D0F8B40056
:10195000B0F5807F1FD1FFE7FFF716F81690FFE77D
:1019600044F27040C5F60200006800F00201002059
:10197000B0EB510F0ED1FFE7FFF706F81699401AAA
:1019800041F28931884204D3FFE703208DF85700E4
:1019900000E0E5E7FFE79DF85700A0BBFFE7FFE7A2
:1019A0001898D0F8B40000F44070B0F5407F13D11F
:1019B000FFE744F21041C5F60201086820F47C50AC
:1019C000189AD2F8B4204FF6F043C0F6FF731A40CD
:1019D00040EA1210086008E044F21041C5F6020126
:1019E000086820F47C500860FFE71898D0F8B4200D
:1019F0006FF31F3244F27041C5F6020108681043CC
:101A00000860FFE704E09DF857008DF85600FFE7F7
:101A100004E09DF857008DF85600FFE7FFE718989F
:101A20000068C007002800F04C80FFE71898C06FDE
:101A3000099028282BD80999DFE801F015292929D0
:101A40002929292916292929292929291E29292924
:101A500029292929262929292929292927292929FB
:101A600029292929280016E018980830012102F0B8
:101A7000D3F88DF857000EE018982830012102F0B5
:101A8000B3F98DF8570006E005E004E003E001201B
:101A90008DF85700FFE79DF8570060B9FFE744F263
:101AA0005441C5F60201086820F03800189AD26F38
:101AB0001043086004E09DF857008DF85600FFE7DA
:101AC000FFE7189800788007002839D5FFE71898B5
:101AD000806F0890052819D80899DFE801F0030401
:101AE0000C14151616E018980830012102F094F82D
:101AF0008DF857000EE018982830012102F074F993
:101B00008DF8570006E005E004E003E001208DF8C1
:101B10005700FFE79DF8570060B9FFE744F25441D2
:101B2000C5F60201086820F00700189A926F10436A
:101B3000086004E09DF857008DF85600FFE7FFE7C6
:101B400018980078400700283BD5FFE71898D0F890
:101B500094000790052819D80799DFE801F00304DD
:101B60000C14151616E018980830012102F054F8EC
:101B70008DF857000EE018982830012102F034F952
:101B80008DF8570006E005E004E003E001208DF841
:101B90005700FFE79DF8570068B9FFE744F2584146
:101BA000C5F60201086820F00700189AD2F89420C0
:101BB0001043086004E09DF857008DF85600FFE7D9
:101BC000FFE718980078800600284ED5FFE71898A0
:101BD000D0F890000690C8B1FFE70698B0F1805F9A
:101BE00015D0FFE70698B0F1005F18D0FFE7069820
:101BF000B0F1405F1BD0FFE70698B0F1804F17D0DF
:101C0000FFE70698B0F1A04F13D013E016E0189844
:101C10000830002102F000F88DF857000EE0189807
:101C20002830022102F0E0F88DF8570006E005E0C8
:101C300004E003E001208DF85700FFE79DF857000E
:101C400068B9FFE744F25441C5F60201086820F084
:101C5000E040189AD2F890201043086004E09DF804
:101C600057008DF85600FFE7FFE718980078400608
:101C700000284ED5FFE71898D0F89C000590C8B111
:101C8000FFE70598B0F5806F15D0FFE70598B0F530
:101C9000006F18D0FFE70598B0F5406F1BD0FFE745
:101CA0000598B0F5805F17D0FFE70598B0F5A05F05
:101CB00013D013E016E018980830002101F0ACFFB3
:101CC0008DF857000EE018982830022102F08CF8A9
:101CD0008DF8570006E005E004E003E001208DF8F0
:101CE0005700FFE79DF8570068B9FFE744F25841F5
:101CF000C5F60201086820F4E050189AD2F89C203A
:101D00001043086004E09DF857008DF85600FFE787
:101D1000FFE718980078000600284ED5FFE71898CE
:101D2000D0F8A0000490C8B1FFE70498B0F5005FB8
:101D300015D0FFE70498B0F5804F18D0FFE704985E
:101D4000B0F5C04F1BD0FFE70498B0F5004F17D097
:101D5000FFE70498B0F5204F13D013E016E0189871
:101D60000830002101F058FF8DF857000EE0189858
:101D70002830022102F038F88DF8570006E005E01F
:101D800004E003E001208DF85700FFE79DF85700BD
:101D900068B9FFE744F25841C5F60201086820F42B
:101DA0006040189AD2F8A0201043086004E09DF823
:101DB00057008DF85600FFE7FFE7189800780007F6
:101DC000002820D5FFE71898D0F88400B0F5805F90
:101DD0000CD1FFE718982830022102F005F820B155
:101DE000FFE701208DF85600FFE7FFE744F254417A
:101DF000C5F60201086820F44050189AD2F88420F1
:101E000010430860FFE718980078C006002820D526
:101E1000FFE71898D0F89800B0F5807F0CD1FFE765
:101E200018982830022101F0DFFF20B1FFE70120E0
:101E30008DF85600FFE7FFE744F25841C5F602016E
:101E4000086820F44070189AD2F89820104308606F
:101E5000FFE718988078000700283CD5FFE718981E
:101E6000D0F8A400039050B1FFE70398B0F5803F8D
:101E70000DD0FFE70398B0F5003F10D010E01898A0
:101E80000830002101F0C8FE8DF857000CE01898CA
:101E90002830022101F0A8FF8DF8570004E003E08C
:101EA00001208DF85700FFE79DF8570068B9FFE75C
:101EB00044F25841C5F60201086820F44030189AEF
:101EC000D2F8A4201043086004E09DF857008DF874
:101ED0005600FFE7FFE718988078400700283FD5B5
:101EE000FFE71898D0F888000290B0F5801F0AD05C
:101EF000FFE70298B0F5001F0ED0FFE70298B0F59B
:101F0000401F11D011E044F22C41C5F602010868CF
:101F100040F4003008600CE018982830012101F0EE
:101F200063FF8DF8570004E003E001208DF85700AF
:101F3000FFE79DF8570068B9FFE744F25441C5F642
:101F40000201086820F44010189AD2F88820104343
:101F5000086004E09DF857008DF85600FFE7FFE7A2
:101F600018988078C007A8B3FFE71898006D019013
:101F700028B1FFE70198B0F5803F09D010E044F2A6
:101F80002C41C5F60201086840F4003008600BE0FF
:101F900018980830022101F03FFE8DF8570003E049
:101FA00001208DF85700FFE79DF8570060B9FFE763
:101FB00044F24C41C5F60201086820F48030189ABA
:101FC000126D1043086004E09DF857008DF856002C
:101FD000FFE7FFE71898C078800600280CD5FFE7D8
:101FE00018982830022101F0FFFE20B1FFE7012000
:101FF0008DF85600FFE7FFE71898807880070028E3
:102000003CD5FFE71898D0F880000090D0B1FFE7EA
:102010000098B0F5807F0AD0FFE70098B0F5007F08
:102020000ED0FFE70098B0F5407F0AD00BE044F2F5
:102030002C41C5F60201086840F40030086006E053
:1020400005E004E003E001208DF85700FFE79DF86C
:10205000570068B9FFE744F25441C5F60201086829
:1020600020F44070189AD2F880201043086004E0F1
:102070009DF857008DF85600FFE7FFE71898807825
:10208000C00600280CD5FFE744F25041C5F6020116
:10209000086820F00040189A526F10430860FFE76C
:1020A0001898C078C00600280DD5FFE744F210410B
:1020B000C5F60201086820F48040189AD2F8B820CA
:1020C00010430860FFE718988078800600280CD538
:1020D000FFE744F25041C5F60201086820F0807025
:1020E000189AD26E10430860FFE71898C07840062F
:1020F000002811D5FFE7FFE744F21041C5F60201C1
:10210000086820F4004008601898D0F8BC200868DF
:1021100010430860FFE7FFE71898C0780006002822
:102120000CD5FFE744F24C41C5F60201086820F0E7
:102130004050189A526D10430860FFE71898807855
:10214000000600280DD5FFE744F25441C5F6020110
:10215000086820F44000189AD2F88C2010430860D8
:10216000FFE718980079C00790B1FFE7189808308A
:10217000002101F051FD8DF857009DF8570008B976
:10218000FFE704E09DF857008DF85600FFE7FFE7F2
:10219000189800798007002812D5FFE718980830B2
:1021A000012101F039FD8DF857009DF8570008B95D
:1021B000FFE704E09DF857008DF85600FFE7FFE7C2
:1021C000189800794007002812D5FFE718980830C2
:1021D000022101F021FD8DF857009DF8570008B944
:1021E000FFE704E09DF857008DF85600FFE7FFE792
:1021F000189800790007002812D5FFE718982830B2
:10220000002101F0F1FD8DF857009DF8570008B945
:10221000FFE704E09DF857008DF85600FFE7FFE761
:1022200018980079C006002812D5FFE718982830C2
:10223000012101F0D9FD8DF857009DF8570008B92C
:10224000FFE704E09DF857008DF85600FFE7FFE731
:10225000189800798006002812D5FFE718982830D2
:10226000022101F0C1FD8DF857009DF8570008B913
:10227000FFE704E09DF857008DF85600FFE7FFE701
:102280009DF8560020B9FFE700208DF8670003E0B5
:1022900001208DF86700FFE79DF867001AB080BD48
:1022A00080B586B004900391049820B9FFE701201F
:1022B0008DF817003CE2039842F20001C5F20021BC
:1022C000096801F00F01884216D9FFE742F20000C9
:1022D000C5F20020016821F00F01039A114301604B
:1022E000006800F00F000399884204D0FFE7012046
:1022F0008DF817001CE2FFE70498007840070028DB
:1023000019D5FFE70498006944F21841C5F60201A7
:10231000096801F0700188420CD9FFE744F21841C6
:10232000C5F60201086820F07000049A1269104393
:102330000860FFE7FFE7049800780007002819D538
:10234000FFE70498406944F21C41C5F602010968A0
:1023500001F0700188420CD9FFE744F21C41C5F638
:102360000201086820F07000049A52691043086066
:10237000FFE7FFE704980078C006002819D5FFE7BB
:102380000498806944F21C41C5F60201096801F411
:10239000E06188420CD9FFE744F21C41C5F6020116
:1023A000086820F4E060049A926910430860FFE72F
:1023B000FFE7049800788006002819D5FFE7049805
:1023C000C06944F22041C5F60201096801F07001BC
:1023D00088420CD9FFE744F22041C5F602010868A3
:1023E00020F07000049AD26910430860FFE7FFE70D
:1023F000049800788007002819D5FFE70498C06882
:1024000044F21841C5F60201096801F00F01884243
:102410000CD9FFE744F21841C5F60201086820F024
:102420000F00049AD26810430860FFE7FFE70498A2
:102430000078C007002800F08C80FFE744F21841C4
:10244000C5F60201086820F47060049A926810438F
:10245000086004984068022811D1FFE744F2004068
:10246000C5F60200006800F400310020B0EB514FC7
:1024700004D1FFE701208DF8170059E13EE00498F0
:102480004068032811D1FFE744F20040C5F602007E
:10249000006800F000710020B0EB516F04D1FFE73D
:1024A00001208DF8170043E127E0049840680128D7
:1024B00011D1FFE744F20040C5F60200006800F4C5
:1024C00080710020B0EB112F04D1FFE701208DF8BF
:1024D00017002DE110E044F20040C5F6020000684C
:1024E00000F004010020B0EB910F04D1FFE70120C0
:1024F0008DF817001CE1FFE7FFE7FFE744F210410A
:10250000C5F60201086820F00700049A52681043DB
:102510000860FEF739FA0190FFE744F21040C5F673
:102520000200006800F0380004994968B0EBC10F60
:102530000ED0FFE7FEF728FA0199401A41F28931DF
:10254000884204D3FFE703208DF81700F0E0E4E7AA
:10255000FFE7049800788007002819D5FFE7049862
:10256000C06844F21841C5F60201096801F00F0184
:1025700088420CD2FFE744F21841C5F60201086810
:1025800020F00F00049AD26810430860FFE7FFE7CD
:10259000039842F20001C5F20021096801F00F0121
:1025A000884216D2FFE742F20000C5F2002001681F
:1025B00021F00F01039A11430160006800F00F0041
:1025C0000399884204D0FFE701208DF81700AFE09F
:1025D000FFE7049800784007002819D5FFE7049822
:1025E000006944F21841C5F60201096801F0700162
:1025F00088420CD2FFE744F21841C5F60201086890
:1026000020F07000049A126910430860FFE7FFE7AA
:10261000049800780007002819D5FFE7049840695E
:1026200044F21C41C5F60201096801F070018842BC
:102630000CD2FFE744F21C41C5F60201086820F005
:102640007000049A526910430860FFE7FFE704989E
:102650000078C006002819D5FFE70498806944F285
:102660001C41C5F60201096801F4E06188420CD200
:10267000FFE744F21C41C5F60201086820F4E0605F
:10268000049A926910430860FFE7FFE70498007816
:102690008006002819D5FFE70498C06944F220415C
:1026A000C5F60201096801F0700188420CD2FFE70B
:1026B00044F22041C5F60201086820F07000049A37
:1026C000D26910430860FFE7FFE700F089F844F2A1
:1026D0001842C5F602021168C1F3032345F26211E4
:1026E000C0F60001CB5C03F01F03D84000900098B7
:1026F000126802F00F02895C01F01F01C84040F22D
:102700000401C2F200410860009840F20001C2F2E8
:102710000041086040F20C00C2F200400068FEF781
:102720008BF98DF80B009DF80B008DF81700FFE773
:102730009DF8170006B080BD80B582B000F050F85B
:1027400044F21842C5F602021168C1F3032345F2B0
:102750006211C0F60001CB5C03F01F03D84001906A
:102760000198126802F00F02895C01F01F0120FA43
:1027700001F140F20400C2F200400160019940F210
:102780000002C2F200421160006802B080BD000089
:1027900080B5FFF7D1FF44F21C41C5F6020109687C
:1027A000C1F3021245F26211C0F60001895C01F02A
:1027B0001F01C84080BD000080B5FFF7BDFF44F297
:1027C0001C41C5F602010968C1F3022245F26211FB
:1027D000C0F60001895C01F01F01C84080BD000007
:1027E0008AB044F21040C5F60200006800F03800DC
:1027F00001460191182800F25F810199DFE811F08C
:1028000019005C015C015C015C015C015C015C0124
:102810003A005C015C015C015C015C015C015C01F3
:1028200040005C015C015C015C015C015C015C01DD
:10283000460044F20040C5F60200006800F02001A6
:102840000020B0EB511F0ED0FFE744F20040C5F668
:1028500002000068C0F3C10149F20000C0F2D030AC
:10286000C840029005E049F20000C0F2D03002906A
:10287000FFE727E140F60010C0F23D00029021E1A1
:1028800047F64000C0F27D1002901BE144F2284060
:10289000C5F60200016801F0030108910068C0F369
:1028A0000510079044F22C40C5F60200006800F0C5
:1028B00001000690069844F23441C5F60201096809
:1028C00089B2C908484300EE100AB8EE400A8DEDFF
:1028D000040A0798002800F0EB80FFE708980090B2
:1028E00048B1FFE70098012865D0FFE7009802286B
:1028F00000F08380A3E044F20040C5F602000068C7
:1029000000F020010020B0EB511F31D0FFE744F26E
:102910000040C5F602000068C0F3C10149F20000A2
:10292000C0F2D030C84005909DED050AB8EE400ACF
:102930009DED071AB8EE411A80EE010A44F23040CC
:10294000C5F6020000686FF35F2001EE100AB8EED2
:10295000411A9DED042A9FED5E3A02EE031AB7EE8E
:10296000002A31EE021A20EE010A8DED030A21E061
:102970009DED070AB8EE401A9FED570A80EE010A56
:1029800044F23040C5F6020000686FF35F2001EEAC
:10299000100AB8EE411A9DED042A9FED4D3A02EE61
:1029A000031AB7EE002A31EE021A20EE010A8DED6D
:1029B000030AFFE765E09DED070AB8EE401A9FEDB8
:1029C000450A80EE010A44F23040C5F60200006874
:1029D0006FF35F2001EE100AB8EE411A9DED042A54
:1029E0009FED3B3A02EE031AB7EE002A31EE021ACF
:1029F00020EE010A8DED030A43E09DED070AB8EED3
:102A0000401A9FED320A80EE010A44F23040C5F6CA
:102A1000020000686FF35F2001EE100AB8EE411A61
:102A20009DED042A9FED2A3A02EE031AB7EE002A22
:102A300031EE021A20EE010A8DED030A21E09DED30
:102A4000070AB8EE401A9FED230A80EE010A44F20D
:102A50003040C5F6020000686FF35F2001EE100AF7
:102A6000B8EE411A9DED042A9FED193A02EE031AC1
:102A7000B7EE002A31EE021A20EE010A8DED030AAC
:102A8000FFE744F23040C5F60200006881B2012041
:102A900000EB512009909DED030A9DED091AB8EE57
:102AA000411A80EE010ABCEEC00A8DED020A02E076
:102AB00000200290FFE705E040F60010C0F23D0064
:102AC0000290FFE702980AB0704700BF20BCBE4BDF
:102AD000000000390024744A0024744C00000000F7
:102AE00080B58CB00A900A9828B9FFE701208DF8CC
:102AF0002F0000F09DBD0A980078C007002800F064
:102B0000B980FFE744F21040C5F60200006800F00B
:102B10003800069044F22840C5F60200006805908F
:102B2000069810280AD0FFE7069818281CD1FFE75E
:102B3000059800F00300022816D1FFE744F2004098
:102B4000C5F60200006800F400310020B0EB514FE0
:102B500009D0FFE70A98406828B9FFE701208DF8FF
:102B60002F0000F065BD84E0FFE70A984068B0F5EB
:102B7000803F09D1FFE744F20041C5F60201086831
:102B800040F48030086032E00A98406868B9FFE796
:102B900044F20041C5F60201086820F48030086064
:102BA000086820F48020086020E00A984068B0F5AA
:102BB000A02F0DD1FFE744F20041C5F602010868DD
:102BC00040F480200860086840F4803008600CE021
:102BD00044F20041C5F60201086820F48030086024
:102BE000086820F480200860FFE7FFE7FFE7FFE7C1
:102BF0000A984068F0B1FFE7FDF7C6FE0990FFE7CD
:102C000044F20040C5F60200006800F400310020E4
:102C1000B0EB514F0DD1FFE7FDF7B6FE0999401A11
:102C2000652805D3FFE703208DF82F0000F000BDD5
:102C3000E6E71DE0FDF7A8FE0990FFE744F200403B
:102C4000C5F60200006800F400310020B0EB514FDF
:102C50000DD0FFE7FDF798FE0999401A652805D3C6
:102C6000FFE703208DF82F0000F0E2BCE6E7FFE766
:102C7000FFE7FFE70A9800788007002840F11681F7
:102C8000FFE744F21040C5F60200006800F038008B
:102C9000049044F22840C5F60200006803900498AE
:102CA00050B1FFE70498182878D1FFE79DF80C0091
:102CB0008007002872D1FFE744F20040C5F6020009
:102CC000006800F004010020B0EB910F09D0FFE78D
:102CD0000A98C06828B9FFE701208DF82F0000F09E
:102CE000A7BC44F20041C5F60201086820F01900B3
:102CF0000A9AD26810430860FDF746FE0990FFE784
:102D000044F20040C5F60200006800F00401002013
:102D1000B0EB910F0DD1FFE7FDF736FE0999401A90
:102D2000032805D3FFE703208DF82F0000F080BCB7
:102D3000E6E7FFE7FDF720FE41F2030188421DD8D8
:102D4000FFE70A98006940280AD1FFE744F20441EE
:102D5000C5F602010868202262F3113008600CE019
:102D600044F20441C5F60201086820F47C300A9A56
:102D7000126940EA02300860FFE70CE044F20441C7
:102D8000C5F60201086820F0FE400A9A126940EA7E
:102D900002600860FFE7FFE7FFE786E00A98C06887
:102DA00000285CD0FFE744F20041C5F60201086844
:102DB00020F019000A9AD26810430860FDF7E4FD7C
:102DC0000990FFE744F20040C5F60200006800F0F9
:102DD00004010020B0EB910F0DD1FFE7FDF7D4FD0A
:102DE0000999401A032805D3FFE703208DF82F0027
:102DF00000F01EBCE6E7FFE7FDF7BEFD41F2030170
:102E000088421DD8FFE70A98006940280AD1FFE7E9
:102E100044F20441C5F602010868202262F3113031
:102E200008600CE044F20441C5F60201086820F491
:102E30007C300A9A126940EA02300860FFE70CE031
:102E400044F20441C5F60201086820F0FE400A9AE7
:102E5000126940EA02600860FFE7FFE724E044F2FD
:102E60000041C5F60201086820F001000860FDF786
:102E70008BFD0990FFE744F20040C5F602000068B0
:102E800000F004010020B0EB910F0CD0FFE7FDF73C
:102E90007BFD0999401A032804D3FFE703208DF82E
:102EA0002F00C5E3E7E7FFE7FFE7FFE70A980078B1
:102EB000C006002840F1EB80FFE744F21040C5F661
:102EC0000200006800F03800029044F22840C5F685
:102ED000020000680190029808280AD0FFE70298D3
:102EE000182850D1FFE7019800F0030001284AD1CB
:102EF000FFE744F20040C5F60200006800F480716C
:102F00000020B0EB112F09D0FFE70A98C069802894
:102F100004D0FFE701208DF82F0089E3FFE7FDF7DC
:102F20002BFD41F2030188421DD8FFE70A98006A91
:102F300020280AD1FFE744F20441C5F602010868DF
:102F4000102262F39E6008600CE044F20441C5F672
:102F50000201086820F0F8400A9A126A40EA82608A
:102F60000860FFE70CE044F20C41C5F60201086876
:102F700020F07C500A9A126A40EA02600860FFE77B
:102F8000FFE7FFE782E00A98C069002858D0FFE712
:102F900044F20041C5F60201086840F08000086074
:102FA000FDF7F2FC0990FFE744F20040C5F602008D
:102FB000006800F480710020B0EB112F0CD1FFE706
:102FC000FDF7E2FC0999401A032804D3FFE7032028
:102FD0008DF82F002CE3E7E7FFE7FDF7CDFC41F28A
:102FE000030188421DD8FFE70A98006A20280AD109
:102FF000FFE744F20441C5F602010868102262F3BB
:103000009E6008600CE044F20441C5F602010868C5
:1030100020F0F8400A9A126A40EA82600860FFE7EE
:103020000CE044F20C41C5F60201086820F07C5027
:103030000A9A126A40EA02600860FFE7FFE724E0AC
:1030400044F20041C5F60201086820F080000860E3
:10305000FDF79AFC0990FFE744F20040C5F6020034
:10306000006800F480710020B0EB112F0CD0FFE756
:10307000FDF78AFC0999401A032804D3FFE70320CF
:103080008DF82F00D4E2E7E7FFE7FFE7FFE70A98B4
:103090000078000700284FD5FFE70A98406928B359
:1030A000FFE744F27441C5F60201086840F00100F0
:1030B0000860FDF769FC0990FFE744F27440C5F62B
:1030C0000200006800F002010020B0EB510F0CD1AB
:1030D000FFE7FDF759FC0999401A032804D3FFE7DD
:1030E00003208DF82F00A3E2E7E724E044F27441C7
:1030F000C5F60201086820F001000860FDF744FCF5
:103100000990FFE744F27440C5F60200006800F041
:1031100002010020B0EB510F0CD0FFE7FDF734FCAB
:103120000999401A032804D3FFE703208DF82F00E4
:103130007EE2E7E7FFE7FFE70A98007880060028CD
:103140004FD5FFE70A98806928B3FFE744F20041B2
:10315000C5F60201086840F480500860FDF714FCD1
:103160000990FFE744F20040C5F60200006800F451
:1031700000510020B0EB513F0CD1FFE7FDF704FCFC
:103180000999401A032804D3FFE703208DF82F0084
:103190004EE2E7E724E044F20041C5F60201086888
:1031A00020F480500860FDF7EFFB0990FFE744F240
:1031B0000040C5F60200006800F400510020B0EBAA
:1031C000513F0CD0FFE7FDF7DFFB0999401A0328B8
:1031D00004D3FFE703208DF82F0029E2E7E7FFE79C
:1031E000FFE70A9800784007002840F1A780FFE732
:1031F00044F60001C5F60201086840F480700860DA
:10320000FDF7C2FB0990FFE744F60000C5F6020097
:103210000068C00500280CD4FFE7FDF7B5FB09994D
:10322000401A652804D3FFE703208DF82F00FFE143
:10323000EAE7FFE70A988068012809D1FFE744F22E
:103240007041C5F60201086840F00100086031E0F5
:103250000A98806868B9FFE744F27041C5F6020138
:10326000086820F001000860086820F00400086089
:103270001FE00A98806805280DD1FFE744F27041ED
:10328000C5F60201086840F004000860086840F0D4
:10329000010008600CE044F27041C5F602010868C4
:1032A00020F001000860086820F004000860FFE7D3
:1032B000FFE7FFE7FFE70A988068F8B1FFE7FDF74F
:1032C00063FB0990FFE744F27040C5F60200006816
:1032D00000F002010020B0EB510F0ED1FFE7FDF727
:1032E00053FB0999401A41F28931884204D3FFE720
:1032F00003208DF82F009BE1E5E71EE0FDF744FB7E
:103300000990FFE744F27040C5F60200006800F043
:1033100002010020B0EB510F0ED0FFE7FDF734FBA8
:103320000999401A41F28931884204D3FFE703200A
:103330008DF82F007CE1E5E7FFE7FFE70A98406A98
:10334000002800F07181FFE744F21040C5F602004A
:10335000006800F03800182800F0E080FFE70A98C5
:10336000406A022840F0B480FFE744F20041C5F60D
:103370000201086820F080700860FDF705FB0990E5
:10338000FFE744F20040C5F60200006800F000715B
:103390000020B0EB516F0CD0FFE7FDF7F5FA09996B
:1033A000401A032804D3FFE703208DF82F003FE1E4
:1033B000E7E7FFE744F22841C5F60201086840F25A
:1033C000F33290430A9B9A6ADB6A42EA0312104383
:1033D00008600A99086BD1F834C08B6BCA6B01384E
:1033E0006FF35F204FF60061CFF6FF7101EB4C21C8
:1033F00089B208440021CFF6FF7101EB034101F4CB
:10340000FE0108444FF07F4101EB026101F0FE41F3
:10341000084444F23041C5F602010860FFE744F277
:103420002C41C5F602010091086820F001000860F7
:1034300044F23442C5F6020210684FF6F87398431E
:103440000A9B9B6C40EAC3001060086820F00C00E7
:103450000A9A126C10430860086820F002000A9A69
:10346000526C10430860086840F4803008600868B7
:1034700040F400300860086840F480200860086864
:1034800040F00100086044F20041C5F602010868FE
:1034900040F080700860FDF777FA0990FFE744F28A
:1034A0000040C5F60200006800F000710020B0EB9B
:1034B000516F0CD1FFE7FDF767FA0999401A03280D
:1034C00004D3FFE703208DF82F00B1E0E7E724E005
:1034D00044F20041C5F60201086820F080700860DF
:1034E000FDF752FA0990FFE744F20040C5F60200EA
:1034F000006800F000710020B0EB516F0CD0FFE7C6
:10350000FDF742FA0999401A032804D3FFE7032084
:103510008DF82F008CE0E7E7FFE784E044F22840D5
:10352000C5F602000068089044F23040C5F602007B
:10353000006807900A98406A012837D0FFE708988A
:1035400000F003000A99896A88422FD1FFE70898A2
:1035500000F47C710A98C06AB0EB111F26D1FFE716
:1035600007986FF35F200A99096B013988421DD1D2
:10357000FFE7BDF81C100A98406B0138B0EB512FE3
:1035800014D1FFE7079800F4FE010A98806B013818
:10359000B0EB114F0AD1FFE7079800F0FE410A98FF
:1035A000C06B0138B0EB116F04D0FFE701208DF83C
:1035B0002F003DE044F23440C5F60200006880B2BE
:1035C000C00808900A98806C0899884229D0FFE7C3
:1035D00044F22C41C5F60201086820F001000860A1
:1035E000FDF7D2F90990FFE7FDF7CEF90999401AE6
:1035F00008B9FFE7F8E744F23441C5F6020108686C
:103600004FF6F87290430A9A926C40EAC200086042
:1036100044F22C41C5F60201086840F00100086040
:10362000FFE7FFE7FFE7FFE700208DF82F00FFE748
:103630009DF82F000CB080BD80B582B0019001983C
:1036400000F0BEFC02B080BD83B00190FFE701989E
:1036500090F88400012804D1FFE702208DF80B00C8
:103660002CE00199012081F88400FFE7FFE7019930
:103670002420C1F888000198006800680090019833
:103680000168086820F001000860009820F00050F0
:103690000090019900204866009801990968086027
:1036A00001992020C1F88800FFE70199002081F8E6
:1036B0008400FFE700208DF80B00FFE79DF80B006A
:1036C00003B070470000000080B584B00290019103
:1036D000FFE7029890F88400012804D1FFE7022058
:1036E0008DF80F0032E00299012081F88400FFE795
:1036F000FFE702992420C1F888000298006800685A
:10370000009002980168086820F0010008600298A3
:103710000068806820F06060019908430299096898
:103720008860029800F0B8FD009802990968086066
:1037300002992020C1F88800FFE70299002081F853
:103740008400FFE700208DF80F00FFE79DF80F00D1
:1037500004B080BD0000000080B584B002900191EB
:10376000FFE7029890F88400012804D1FFE70220C7
:103770008DF80F0032E00299012081F88400FFE704
:10378000FFE702992420C1F88800029800680068C9
:10379000009002980168086820F001000860029813
:1037A0000068806820F06040019908430299096828
:1037B0008860029800F070FD00980299096808601E
:1037C00002992020C1F88800FFE70299002081F8C3
:1037D0008400FFE700208DF80F00FFE79DF80F0041
:1037E00004B080BD0000000080B582B00090009859
:1037F00020B9FFE701208DF8070046E000988069B6
:1038000008B1FFE700E0FFE70098D0F8880040B972
:10381000FFE70099002081F88400009800F03CF850
:10382000FFE700992420C1F8880000980168086823
:1038300020F0010008600098806A20B1FFE700983E
:1038400000F06EFDFFE7009800F002FF012804D1B0
:10385000FFE701208DF8070017E00098016848682D
:1038600020F49040486000980168886820F02A00A1
:10387000886000980168086840F0010008600098BE
:1038800000F0F2FD8DF80700FFE79DF8070002B099
:1038900080BD00000000000080B5B8B03790002067
:1038A0003690359034903390329002A8C021FCF7C6
:1038B000F5FD3798006841F20001C4F20101884229
:1038C0003DD1FFE70020039001210291219002A841
:1038D000FDF796FC18B1FFE7FCF74EFEFFE7FFE7A8
:1038E00044F2F040C5F60200016841F010010160A9
:1038F000006800F0100001900198FFE7FFE744F234
:10390000E040C5F60200016841F002010160006874
:1039100000F0020000900098FFE74FF44040329022
:10392000022033900020349035900420369040F2ED
:103930000040C5F6020032A9FCF73AFEFFE738B0B6
:1039400080BD000000000000FFE7FEE7000000006F
:1039500080B586B0002001900590049003900290FD
:10396000FDF7EEF8019801218DF808108DF8090097
:1039700003901F228DF8102087228DF811208DF8DA
:1039800012008DF813008DF814108DF815108DF8B5
:1039900016008DF8170002A8FDF792F80420FDF735
:1039A000E3F806B080BD000080B590B000200F9015
:1039B0000E900D900C900B90FFE744F2E040C5F69E
:1039C0000200016841F010010160006800F0100081
:1039D0000A900A98FFE7FFE744F2E040C5F60200CC
:1039E000016841F004010160006800F004000990E2
:1039F0000998FFE7FFE744F2E040C5F602000168DE
:103A000041F080010160006800F080000890089893
:103A1000FFE7FFE744F2E040C5F60200016841F02D
:103A200001010160006800F0010007900798FFE7BE
:103A3000FFE744F2E040C5F60200016841F00201F0
:103A40000160006800F0020006900698FFE7FFE7BB
:103A500044F2E040C5F60200016841F0080101604F
:103A6000006800F0080005900598FFE74FF6FF702A
:103A700001900B90032002900C90002003900D9079
:103A800041F20000C5F602000BA90491FCF790FD7D
:103A9000029A0398049943F6FF7300930B930C92D8
:103AA0000D9040F60000C5F60200FCF781FD029A79
:103AB0000398049949F6FF730B930C920D90002024
:103AC000C5F60200FCF774FD009B029A0398049966
:103AD0000B930C920D9040F20040C5F60200FCF7EB
:103AE00067FD019B029A039804990B930C920D9029
:103AF00040F60040C5F60200FCF75AFD10B080BD4C
:103B000080B582B040F27000C2F20040009041F2F5
:103B10000001C4F2010101604FF4E1314160002174
:103B200001918160C16001610C2242618161C161CA
:103B3000016241628162FFF757FE18B1FFE7FCF7AF
:103B40001BFDFFE740F27000C2F200400021FFF7CA
:103B500003FE18B1FFE7FCF70FFDFFE740F270002E
:103B6000C2F200400021FFF7AFFD18B1FFE7FCF7FC
:103B700003FDFFE740F27000C2F20040FFF764FD72
:103B800018B1FFE7FCF7F8FCFFE702B080BD0000CA
:103B9000FFE7FEE700000000FFE7FEE7000000008F
:103BA00088B0079006910592079800F007000490EE
:103BB0000498C0F10700052803D3FFE70420019013
:103BC00004E00498C0F107000190FFE7019803901A
:103BD00004980430062803D8FFE70020009003E093
:103BE000049803380090FFE7009802900698039924
:103BF000012202FA01F101390840029B984005991F
:103C00009A40013A1140084308B070470000000094
:103C1000704700000000000080B586B0049003915A
:103C200000208DF8070044F22840C5F60200006825
:103C300000F00300032804D1FFE701208DF81700EE
:103C4000CBE044F20041C5F60201086820F0806034
:103C50000860FCF799FE0290FFE744F20040C5F6C9
:103C60000200006800F000610020B0EBD16F0CD0C2
:103C7000FFE7FCF789FE0299401A032804D3FFE707
:103C800003208DF81700A8E0E7E7FFE744F228419A
:103C9000C5F60201086820F47C30049A126840EAF4
:103CA0000230086004994868D1F808C0CB680A69F6
:103CB00001386FF35F204FF60061CFF6FF7101EB23
:103CC0004C2189B208440021CFF6FF7101EB03417A
:103CD00001F4FE0108444FF07F4101EB026101F065
:103CE000FE41084444F23841C5F602010860FFE78E
:103CF00044F22C41C5F602010091086820F0C00092
:103D0000049A526910430860086820F02000049A61
:103D1000926910430860086820F01000086044F2BF
:103D20003C42C5F6020210684FF6F8739843049BB4
:103D3000DB6940EAC3001060086840F010000860CA
:103D4000039848B9FFE744F22C41C5F60201086820
:103D500040F40020086016E00398012809D1FFE72D
:103D600044F22C41C5F60201086840F48010086056
:103D700008E044F22C41C5F60201086840F4001046
:103D80000860FFE7FFE744F20041C5F6020108685A
:103D900040F080600860FCF7F7FD0290FFE744F216
:103DA0000040C5F60200006800F000610020B0EBA2
:103DB000D16F0CD1FFE7FCF7E7FD0299401A032809
:103DC00004D3FFE703208DF8170006E0E7E7FFE7DD
:103DD0009DF807008DF81700FFE79DF8170006B063
:103DE00080BD00000000000080B586B00490039103
:103DF00000208DF8070044F22840C5F60200006854
:103E000000F00300032804D1FFE701208DF817001C
:103E1000CBE044F20041C5F60201086820F0805072
:103E20000860FCF7B1FD0290FFE744F20040C5F6E0
:103E30000200006800F000510020B0EB517F0CD070
:103E4000FFE7FCF7A1FD0299401A032804D3FFE71E
:103E500003208DF81700A8E0E7E7FFE744F22841C8
:103E6000C5F60201086820F07C70049A126840EAE6
:103E70000250086004994868D1F808C0CB680A6904
:103E800001386FF35F204FF60061CFF6FF7101EB51
:103E90004C2189B208440021CFF6FF7101EB0341A8
:103EA00001F4FE0108444FF07F4101EB026101F093
:103EB000FE41084444F24041C5F602010860FFE7B4
:103EC00044F22C41C5F602010091086820F44060DC
:103ED000049A526910430860086820F40070049A3C
:103EE000926910430860086820F48070086044F20A
:103EF0004442C5F6020210684FF6F8739843049BDB
:103F0000DB6940EAC3001060086840F48070086014
:103F1000039848B9FFE744F22C41C5F6020108684E
:103F200040F48000086016E00398012809D1FFE7FB
:103F300044F22C41C5F60201086840F40000086014
:103F400008E044F22C41C5F60201086840F0807098
:103F50000860FFE7FFE744F20041C5F60201086888
:103F600040F080500860FCF70FFD0290FFE744F23C
:103F70000040C5F60200006800F000510020B0EBE0
:103F8000517F0CD1FFE7FCF7FFFC0299401A032890
:103F900004D3FFE703208DF8170006E0E7E7FFE70B
:103FA0009DF807008DF81700FFE79DF8170006B091
:103FB00080BD00000000000070470000000000000D
:103FC00080B582B0009000980138B0F1807F03D3B3
:103FD000FFE70120019019E0009801384EF214012A
:103FE000CEF2000108604FF0FF300F2101F058F8C9
:103FF0004EF21801CEF20001002008604EF21002CD
:10400000CEF20002072111600190FFE7019802B093
:1040100080BD00000000000080B5FCF7BDFC80BD45
:1040200080B59EB00BA84C21FCF738FA0020019017
:104030000A900990089007900690059004900390CC
:104040000220FCF7DDFDFFE70020029040F22C404B
:10405000C5F60000016821F001010160006800F070
:104060000100029044F61800C5F60200016841F410
:1040700040410160006800F4404002900298FFE770
:10408000FFE744F61800C5F60200006800F400508F
:10409000B0F5005F01D0FFE7F3E702210B910120AB
:1040A0000E9040200F90149100201590042216923B
:1040B00032221792189119911A910C211B911C9080
:1040C0001D900BA8FEF70CFD18B1FFE7FCF754FAA2
:1040D000FFE73F2003900320049000200590082074
:1040E00006904020079008904FF4806109910A9053
:1040F00003A80221FEF7D4F818B1FFE7FCF73CFA59
:10410000FFE71EB080BD000081B04EF68851CEF2B0
:104110000001086840F47000086042F20000C5F237
:104120000020006800F00F0006280AD8FFE742F2DE
:104130000001C5F200210868072262F3030008604D
:10414000FFE744F20041C5F60201086840F00100B3
:10415000086044F21042C5F60202002010600868B0
:104160004EF67F52CEF6F6221040086042F2000072
:10417000C5F20020006800F00F0008280AD3FFE70E
:1041800042F20001C5F200210868072262F3030031
:104190000860FFE744F21841C5F6020100200090D4
:1041A000086044F21C41C5F60201086044F2204157
:1041B000C5F60201086044F22842C5F6020240F248
:1041C0000021C0F20221116044F22C42C5F6020225
:1041D0000021C0F2FF11116044F23042C5F6020224
:1041E00040F28021C0F20111116044F23442C5F660
:1041F0000202106044F23842C5F60202116044F235
:104200003C42C5F60202106044F24042C5F602028A
:10421000116044F24441C5F60201086044F20042D4
:10422000C5F60202116821F48021116044F2604158
:10423000C5F60201086041F20001C5F600410968B7
:10424000B0EB517F07D1FFE748F20811C5F200112A
:1042500001200860FFE744F2D440C5F60200006880
:10426000C004002814D4FFE744F2D441C5F602018B
:10427000086840F48050086044F20002C5F2002251
:1042800043F2D2001060086820F480500860FFE715
:1042900001B070470000000082B001900198406EAC
:1042A00040B9FFE701990120A1F86A000199A1F83E
:1042B000680032E010208DF803008DF802000198AC
:1042C00000688068C0F342608DF8010001980068C2
:1042D0008068400F8DF800009DF802009DF80020D6
:1042E00045F27A13C0F60003995C484345F2721117
:1042F000C0F600018A5CB0FBF2F0019AA2F86A00F5
:104300009DF803009DF801209B5C5843895CB0FB3D
:10431000F1F00199A1F86800FFE702B070470000D2
:1043200081B00090009890F82800000700280BD575
:10433000FFE700980068406820F40040009A116888
:10434000926B10434860FFE7009890F82800C00780
:1043500058B1FFE700980068406820F40030009AE8
:104360001168D26A10434860FFE7009890F828006F
:10437000800700280BD5FFE700980068406820F40C
:104380008030009A1168126B10434860FFE7009874
:1043900090F82800400700280BD5FFE70098006838
:1043A000406820F48020009A1168526B10434860E6
:1043B000FFE7009890F82800C00600280BD5FFE71B
:1043C00000980068806820F48050009A1168D26BD1
:1043D00010438860FFE7009890F8280080060028C6
:1043E0000BD5FFE700980068806820F40050009A21
:1043F0001168126C10438860FFE7009890F828005D
:10440000400600281CD5FFE700980068406820F4AB
:104410008010009A1168526C104348600098406CFC
:10442000B0F5801F0BD1FFE700980068406820F4CA
:10443000C000009A1168926C10434860FFE7FFE7E4
:10444000009890F82800000600280BD5FFE7009898
:104450000068406820F40020009A1168D26C104374
:104460004860FFE701B0704780B588B006900699B4
:104470000020C1F89000FCF787FA059006980068C4
:104480000068000700282FD5FFE70698059B6A46BD
:104490006FF07E4111604FF40011002200F06CFDBE
:1044A00008B3FFE7FFE7FFE70698006850E8000F52
:1044B00020F080000490FFE704990698026842E823
:1044C00000100028F0D1FFE7FFE706992020C1F88F
:1044D0008800FFE70699002081F88400FFE70320A9
:1044E0008DF81F005FE0FFE706980068006840074E
:1044F000002842D5FFE70698059B6A466FF07E418B
:1045000011604FF48001002200F036FDA0B3FFE7F8
:10451000FFE7FFE70698006850E8000F20F490706E
:104520000390FFE703990698026842E8001000280C
:10453000F0D1FFE7FFE7FFE7FFE70698006850E8E4
:10454000020F20F001000290FFE70299069802682E
:1045500042E802100028F0D1FFE7FFE7069920208B
:10456000C1F88C00FFE70699002081F88400FFE77E
:1045700003208DF81F0016E0FFE706992020C1F800
:1045800088000699C1F88C0006990020C866069933
:104590000867FFE70699002081F88400FFE7002004
:1045A0008DF81F00FFE79DF81F0008B080BD0000D8
:1045B00084B00390FFE7FFE70398006850E8000F1E
:1045C00020F490700290FFE702990398026842E895
:1045D00000100028F0D1FFE7FFE7FFE7FFE70398AF
:1045E000006850E8020F4FF6FE71CEF6FF710840EA
:1045F0000190FFE701990398026842E80210002841
:10460000EDD1FFE7FFE70398C06E012814D1FFE763
:10461000FFE7FFE70398006850E8000F20F0100064
:104620000090FFE700990398026842E80010002814
:10463000F0D1FFE7FFE7FFE703992020C1F88C00E6
:1046400003990020C8660399486704B070470000CA
:1046500080B59CB01B9000208DF85F001B9800680F
:1046600040F60041C5F60001884201D1FFE700E0B5
:10467000FFE71B9988680B694A69C96918431043A9
:1046800008431A901B980068006846F6F311CCF6B0
:10469000FF7108401A9908431B99096808601B9824
:1046A0000068406820F440501B9A1168D26810439B
:1046B00048601B9880691A901B98006840F600417A
:1046C000C5F60001884206D0FFE71B98016A1A98D8
:1046D00008431A90FFE71B98006880684FF2FF417B
:1046E000C1F2FF1108401A9908431B9909688860B4
:1046F0001B980068C06A20F00F001B9A1168526A6C
:104700001043C862FFE71B98006841F20001C4F241
:104710000101884240F04180FFE744F25440C5F671
:104720000200006800F0380001460E9128282FD8BA
:104730000E99DFE801F0152D2D2D2D2D2D2D192D84
:104740002D2D2D2D2D2D1D2D2D2D2D2D2D2D212DB5
:104750002D2D2D2D2D2D252D2D2D2D2D2D2D2900C2
:1047600001208DF8650017E004208DF8650013E046
:1047700008208DF865000FE010208DF865000BE033
:1047800020208DF8650007E040208DF8650003E0EB
:1047900080208DF86500FFE7D6E11B98006844F2A1
:1047A0000041C4F2000188422ED1FFE744F2544098
:1047B000C5F60200006800F0070001460D910528CB
:1047C0001DD80D99DFE801F003070B0F1317002028
:1047D0008DF8650017E004208DF8650013E00820CF
:1047E0008DF865000FE010208DF865000BE02020AB
:1047F0008DF8650007E040208DF8650003E080201B
:104800008DF86500FFE79EE11B98006844F6000103
:10481000C4F2000188422ED1FFE744F25440C5F6AD
:104820000200006800F0070001460C9105281DD821
:104830000C99DFE801F003070B0F131700208DF828
:10484000650017E004208DF8650013E008208DF85E
:1048500065000FE010208DF865000BE020208DF83A
:10486000650007E040208DF8650003E080208DF8AA
:104870006500FFE766E11B98006844F60041C4F25A
:10488000000188422ED1FFE744F25440C5F60200F1
:10489000006800F0070001460B9105281DD80B9910
:1048A000DFE801F003070B0F131700208DF86500F8
:1048B00017E004208DF8650013E008208DF86500EE
:1048C0000FE010208DF865000BE020208DF86500CA
:1048D00007E040208DF8650003E080208DF865003A
:1048E000FFE72EE11B98006845F20001C4F20001C9
:1048F00088422ED1FFE744F25440C5F6020000681A
:1049000000F0070001460A9105281DD80A99DFE842
:1049100001F003070B0F131700208DF8650017E057
:1049200004208DF8650013E008208DF865000FE085
:1049300010208DF865000BE020208DF8650007E061
:1049400040208DF8650003E080208DF86500FFE7CA
:10495000F6E01B98006841F20041C4F20101884270
:1049600040F04180FFE744F25440C5F60200006881
:1049700000F038000146099128282FD80999DFE86E
:1049800001F0152D2D2D2D2D2D2D192D2D2D2D2DEC
:104990002D2D1D2D2D2D2D2D2D2D212D2D2D2D2D63
:1049A0002D2D252D2D2D2D2D2D2D290001208DF87E
:1049B000650017E004208DF8650013E008208DF8ED
:1049C00065000FE010208DF865000BE020208DF8C9
:1049D000650007E040208DF8650003E080208DF839
:1049E0006500FFE7ABE01B98006847F60001C4F2E2
:1049F000000188422ED1FFE744F25440C5F6020080
:104A0000006800F007000146089105281DD80899A4
:104A1000DFE801F003070B0F131700208DF8650086
:104A200017E004208DF8650013E008208DF865007C
:104A30000FE010208DF865000BE020208DF8650058
:104A400007E040208DF8650003E080208DF86500C8
:104A5000FFE773E01B98006847F60041C4F20001CD
:104A600088422ED1FFE744F25440C5F602000068A8
:104A700000F007000146079105281DD80799DFE8D7
:104A800001F003070B0F131700208DF8650017E0E6
:104A900004208DF8650013E008208DF865000FE014
:104AA00010208DF865000BE020208DF8650007E0F0
:104AB00040208DF8650003E080208DF86500FFE759
:104AC0003BE01B98006840F60041C5F600018842B3
:104AD0002ED1FFE744F25840C5F60200006800F00E
:104AE00007000146069105281DD80699DFE801F068
:104AF00003070B0F131702208DF8650017E0042041
:104B00008DF8650013E008208DF865000FE0102097
:104B10008DF865000BE020208DF8650007E040204F
:104B20008DF8650003E080208DF86500FFE703E065
:104B300080208DF86500FFE7FFE7FFE7FFE7FFE76D
:104B4000FFE7FFE7FFE7FFE7FFE71B98006840F696
:104B50000041C5F60001884240F0B480FFE79DF8AF
:104B6000650001460591022814D0FFE70598042846
:104B700014D0FFE70598082816D0FFE705981028FD
:104B800018D0FFE70598202835D0FFE70598402882
:104B900037D03AE0FCF788F80F903CE013A8FCF718
:104BA00097F814980F9036E010A8FCF7DDF91198EB
:104BB0000F9030E044F20040C5F60200006800F0BB
:104BC00020010020B0EB511F0ED0FFE744F200405F
:104BD000C5F602000068C0F3C10149F20000C0F24E
:104BE000D030C8400F9005E049F20000C0F2D0304C
:104BF0000F90FFE70FE040F60010C0F23D000F906D
:104C000009E04FF400400F9005E000200F900120D4
:104C10008DF85F00FFE70F98002852D0FFE70F984C
:104C20001B994A6A45F28211C0F6000131F8121050
:104C3000B0FBF1F0169016981B99496801EB410101
:104C4000884207D3FFE716981B994968B0EB013FEC
:104C500004D9FFE701208DF85F0031E00F981B9920
:104C60004A6803924A6A45F28211C0F6000131F89F
:104C70001220002304931946FBF798FB039A049B28
:104C8000090241EA1061000210EB520041F10001FB
:104C9000FBF78CFB18901898B0F5407F0BD3FFE71B
:104CA00018990020B0EB115F05D1FFE718981B9908
:104CB0000968C86003E001208DF85F00FFE7FFE7A7
:104CC000FFE746E11B98C069B0F5004F40F0A880AF
:104CD000FFE79DF8650001460291402800F26380DD
:104CE0000299DFE801F021256060296060602F6093
:104CF00060606060606035606060606060606060DF
:104D000060606060606056606060606060606060AD
:104D10006060606060606060606060606060606093
:104D20006060606060605C00FDF732FD0F9040E005
:104D3000FDF742FD0F903CE013A8FBF7C9FF149864
:104D40000F9036E010A8FCF70FF911980F9030E0A3
:104D500044F20040C5F60200006800F02001002087
:104D6000B0EB511F0ED0FFE744F20040C5F6020041
:104D70000068C0F3C10149F20000C0F2D030C84061
:104D80000F9005E049F20000C0F2D0300F90FFE72D
:104D90000FE040F60010C0F23D000F9009E04FF424
:104DA00000400F9005E000200F9001208DF85F007B
:104DB000FFE70F9898B3FFE70F981B9A5168536A63
:104DC00045F28212C0F6000232F81320B0FBF2F076
:104DD000400000EB5100B0FBF1F01890189810283B
:104DE00018D3FFE7BDF86200A0B9FFE7189820F0DC
:104DF0000F00ADF86600189800F00E01BDF86600CF
:104E000040EA5100ADF86600BDF866001B990968DC
:104E1000C86003E001208DF85F00FFE7FFE797E03F
:104E20009DF8650001460191402800F263800199D8
:104E3000DFE801F021256060296060602F6060601C
:104E4000606060603560606060606060606060608D
:104E5000606060605660606060606060606060605C
:104E60006060606060606060606060606060606042
:104E7000606060605C00FDF78BFC0F9040E0FDF728
:104E80009BFC0F903CE013A8FBF722FF14980F90B7
:104E900036E010A8FCF768F811980F9030E044F263
:104EA0000040C5F60200006800F020010020B0EBD1
:104EB000511F0ED0FFE744F20040C5F60200006823
:104EC000C0F3C10149F20000C0F2D030C8400F90D9
:104ED00005E049F20000C0F2D0300F90FFE70FE08C
:104EE00040F60010C0F23D000F9009E04FF4004082
:104EF0000F9005E000200F9001208DF85F00FFE784
:104F00000F9820B3FFE70F981B9A5168536A45F238
:104F10008212C0F6000232F81320B0FBF2F000EB70
:104F20005100B0FBF1F01890189810280AD3FFE751
:104F3000BDF8620030B9FFE7BDF860001B99096851
:104F4000C86003E001208DF85F00FFE7FFE7FFE79F
:104F5000FFE71B990120A1F86A001B99A1F86800DE
:104F60001B99002048671B9988679DF85F001CB05B
:104F700080BD00000000000080B586B0DDF820C0D4
:104F8000049003918DF80B200193FFE704980068CB
:104F9000C06903990840401AB0FA80F040099DF8B2
:104FA0000B10884266D1FFE708980130002860D0D6
:104FB000FFE7FBF7E9FC0199401A0899884203D8FA
:104FC000FFE7089820B9FFE703208DF8170055E0A8
:104FD0000498006800684007002849D5FFE7039857
:104FE000802845D0FFE70398402841D0FFE7049888
:104FF0000068C06900F008010120B0EBD10F16D1A4
:10500000FFE7049801680820009008620498FFF701
:10501000CFFA00980499C1F89000FFE704990020A6
:1050200081F88400FFE701208DF8170026E004983E
:105030000068C06900F400610120B0EBD12F16D1E7
:10504000FFE7049801684FF4006008620498FFF7D6
:10505000AFFA04992020C1F89000FFE704990020DE
:1050600081F88400FFE703208DF8170006E0FFE7D2
:10507000FFE78BE700208DF81700FFE79DF817008A
:1050800006B080BD00000000FFE7FEE70000000062
:105090004EF60C50CEF200000068C0F302207047BC
:1050A00082B0ADF806000091BDF9060000280AD4D0
:1050B000FFE700980001BDF906104EF20042CEF263
:1050C000000288540BE000980001BDF8061001F0C2
:1050D0000F014EF61452CEF200028854FFE702B0E0
:1050E000704700000000000083B00290029800F0BA
:1050F000070000904EF60C51CEF2000108680190B6
:1051000001984FF6FF02104001900198009A40EA82
:1051100002200022C0F2FA52104301900198086068
:1051200003B070470000000080B582B000200190FD
:10513000FEF70EFCFBF740FCFEF772FFFEF734FCB7
:10514000FEF7DEFCFFE7FEE7F1EE100A4FF6FF7117
:10515000C0F2C03120EA010040F04070E1EE100AD8
:105160007047000000000102030401020304060767
:1051700008090804020408010101010101030701F3
:105180000000010002000400060008000A000C00F4
:10519000100020004000800000010000C051000805
:1051A0000000002410000000FC020008D05100089C
:1051B00010000024F80800001C0300080000000094
:1051C0000090D0030090D003010000001000000008
:040000050800029954
:00000001FF
